{
  "_format": "hh-sol-artifact-1",
  "contractName": "ProductRegistry",
  "sourceName": "contracts/ProductRegistry.sol",
  "abi": [
    {
      "inputs": [],
      "stateMutability": "nonpayable",
      "type": "constructor"
    },
    {
      "anonymous": false,
      "inputs": [
        {
          "indexed": false,
          "internalType": "string",
          "name": "productId",
          "type": "string"
        },
        {
          "indexed": false,
          "internalType": "address",
          "name": "buyer",
          "type": "address"
        },
        {
          "indexed": false,
          "internalType": "uint256",
          "name": "price",
          "type": "uint256"
        }
      ],
      "name": "ProductPurchased",
      "type": "event"
    },
    {
      "anonymous": false,
      "inputs": [
        {
          "indexed": false,
          "internalType": "string",
          "name": "productId",
          "type": "string"
        },
        {
          "indexed": false,
          "internalType": "string",
          "name": "name",
          "type": "string"
        },
        {
          "indexed": false,
          "internalType": "address",
          "name": "farmer",
          "type": "address"
        }
      ],
      "name": "ProductRegistered",
      "type": "event"
    },
    {
      "anonymous": false,
      "inputs": [
        {
          "indexed": false,
          "internalType": "string",
          "name": "productId",
          "type": "string"
        },
        {
          "indexed": false,
          "internalType": "bool",
          "name": "verified",
          "type": "bool"
        }
      ],
      "name": "ProductVerified",
      "type": "event"
    },
    {
      "anonymous": false,
      "inputs": [
        {
          "indexed": false,
          "internalType": "string",
          "name": "productId",
          "type": "string"
        },
        {
          "indexed": false,
          "internalType": "string",
          "name": "action",
          "type": "string"
        },
        {
          "indexed": false,
          "internalType": "address",
          "name": "actor",
          "type": "address"
        }
      ],
      "name": "SupplyChainUpdated",
      "type": "event"
    },
    {
      "anonymous": false,
      "inputs": [
        {
          "indexed": false,
          "internalType": "address",
          "name": "user",
          "type": "address"
        },
        {
          "indexed": false,
          "internalType": "bool",
          "name": "authorized",
          "type": "bool"
        }
      ],
      "name": "UserAuthorized",
      "type": "event"
    },
    {
      "inputs": [
        {
          "internalType": "string",
          "name": "_productId",
          "type": "string"
        },
        {
          "internalType": "string",
          "name": "_action",
          "type": "string"
        },
        {
          "internalType": "string",
          "name": "_location",
          "type": "string"
        },
        {
          "internalType": "string",
          "name": "_details",
          "type": "string"
        }
      ],
      "name": "addSupplyChainStep",
      "outputs": [],
      "stateMutability": "nonpayable",
      "type": "function"
    },
    {
      "inputs": [
        {
          "internalType": "uint256",
          "name": "",
          "type": "uint256"
        }
      ],
      "name": "allProductIds",
      "outputs": [
        {
          "internalType": "string",
          "name": "",
          "type": "string"
        }
      ],
      "stateMutability": "view",
      "type": "function"
    },
    {
      "inputs": [
        {
          "internalType": "address",
          "name": "_user",
          "type": "address"
        },
        {
          "internalType": "bool",
          "name": "_authorized",
          "type": "bool"
        }
      ],
      "name": "authorizeUser",
      "outputs": [],
      "stateMutability": "nonpayable",
      "type": "function"
    },
    {
      "inputs": [
        {
          "internalType": "address",
          "name": "",
          "type": "address"
        }
      ],
      "name": "authorizedUsers",
      "outputs": [
        {
          "internalType": "bool",
          "name": "",
          "type": "bool"
        }
      ],
      "stateMutability": "view",
      "type": "function"
    },
    {
      "inputs": [
        {
          "internalType": "string",
          "name": "_productId",
          "type": "string"
        }
      ],
      "name": "buyProduct",
      "outputs": [],
      "stateMutability": "payable",
      "type": "function"
    },
    {
      "inputs": [],
      "name": "getAllProductIds",
      "outputs": [
        {
          "internalType": "string[]",
          "name": "",
          "type": "string[]"
        }
      ],
      "stateMutability": "view",
      "type": "function"
    },
    {
      "inputs": [
        {
          "internalType": "string",
          "name": "_productId",
          "type": "string"
        }
      ],
      "name": "getProduct",
      "outputs": [
        {
          "internalType": "string",
          "name": "name",
          "type": "string"
        },
        {
          "internalType": "string",
          "name": "description",
          "type": "string"
        },
        {
          "internalType": "string",
          "name": "location",
          "type": "string"
        },
        {
          "internalType": "uint256",
          "name": "harvestDate",
          "type": "uint256"
        },
        {
          "internalType": "string",
          "name": "farmer",
          "type": "string"
        },
        {
          "internalType": "string",
          "name": "certification",
          "type": "string"
        },
        {
          "internalType": "bool",
          "name": "isVerified",
          "type": "bool"
        },
        {
          "internalType": "uint256",
          "name": "timestamp",
          "type": "uint256"
        },
        {
          "internalType": "address",
          "name": "registeredBy",
          "type": "address"
        },
        {
          "internalType": "uint256",
          "name": "price",
          "type": "uint256"
        },
        {
          "internalType": "address",
          "name": "owner",
          "type": "address"
        }
      ],
      "stateMutability": "view",
      "type": "function"
    },
    {
      "inputs": [
        {
          "internalType": "string",
          "name": "_productId",
          "type": "string"
        }
      ],
      "name": "getSupplyChainLength",
      "outputs": [
        {
          "internalType": "uint256",
          "name": "",
          "type": "uint256"
        }
      ],
      "stateMutability": "view",
      "type": "function"
    },
    {
      "inputs": [
        {
          "internalType": "string",
          "name": "_productId",
          "type": "string"
        },
        {
          "internalType": "uint256",
          "name": "_index",
          "type": "uint256"
        }
      ],
      "name": "getSupplyChainStep",
      "outputs": [
        {
          "internalType": "string",
          "name": "stepId",
          "type": "string"
        },
        {
          "internalType": "string",
          "name": "action",
          "type": "string"
        },
        {
          "internalType": "string",
          "name": "location",
          "type": "string"
        },
        {
          "internalType": "uint256",
          "name": "timestamp",
          "type": "uint256"
        },
        {
          "internalType": "address",
          "name": "actor",
          "type": "address"
        },
        {
          "internalType": "string",
          "name": "details",
          "type": "string"
        }
      ],
      "stateMutability": "view",
      "type": "function"
    },
    {
      "inputs": [],
      "name": "owner",
      "outputs": [
        {
          "internalType": "address",
          "name": "",
          "type": "address"
        }
      ],
      "stateMutability": "view",
      "type": "function"
    },
    {
      "inputs": [],
      "name": "productCount",
      "outputs": [
        {
          "internalType": "uint256",
          "name": "",
          "type": "uint256"
        }
      ],
      "stateMutability": "view",
      "type": "function"
    },
    {
      "inputs": [
        {
          "internalType": "string",
          "name": "",
          "type": "string"
        }
      ],
      "name": "productExists",
      "outputs": [
        {
          "internalType": "bool",
          "name": "",
          "type": "bool"
        }
      ],
      "stateMutability": "view",
      "type": "function"
    },
    {
      "inputs": [
        {
          "internalType": "string",
          "name": "",
          "type": "string"
        }
      ],
      "name": "products",
      "outputs": [
        {
          "internalType": "string",
          "name": "productId",
          "type": "string"
        },
        {
          "internalType": "string",
          "name": "name",
          "type": "string"
        },
        {
          "internalType": "string",
          "name": "description",
          "type": "string"
        },
        {
          "internalType": "string",
          "name": "location",
          "type": "string"
        },
        {
          "internalType": "uint256",
          "name": "harvestDate",
          "type": "uint256"
        },
        {
          "internalType": "string",
          "name": "farmer",
          "type": "string"
        },
        {
          "internalType": "string",
          "name": "certification",
          "type": "string"
        },
        {
          "internalType": "bool",
          "name": "isVerified",
          "type": "bool"
        },
        {
          "internalType": "uint256",
          "name": "timestamp",
          "type": "uint256"
        },
        {
          "internalType": "address",
          "name": "registeredBy",
          "type": "address"
        },
        {
          "internalType": "uint256",
          "name": "price",
          "type": "uint256"
        },
        {
          "internalType": "address",
          "name": "owner",
          "type": "address"
        }
      ],
      "stateMutability": "view",
      "type": "function"
    },
    {
      "inputs": [
        {
          "internalType": "string",
          "name": "_productId",
          "type": "string"
        },
        {
          "internalType": "string",
          "name": "_name",
          "type": "string"
        },
        {
          "internalType": "string",
          "name": "_description",
          "type": "string"
        },
        {
          "internalType": "string",
          "name": "_location",
          "type": "string"
        },
        {
          "internalType": "uint256",
          "name": "_harvestDate",
          "type": "uint256"
        },
        {
          "internalType": "string",
          "name": "_farmer",
          "type": "string"
        },
        {
          "internalType": "string",
          "name": "_certification",
          "type": "string"
        },
        {
          "internalType": "uint256",
          "name": "_price",
          "type": "uint256"
        }
      ],
      "name": "registerProduct",
      "outputs": [],
      "stateMutability": "nonpayable",
      "type": "function"
    },
    {
      "inputs": [
        {
          "internalType": "string",
          "name": "",
          "type": "string"
        },
        {
          "internalType": "uint256",
          "name": "",
          "type": "uint256"
        }
      ],
      "name": "supplyChain",
      "outputs": [
        {
          "internalType": "string",
          "name": "stepId",
          "type": "string"
        },
        {
          "internalType": "string",
          "name": "productId",
          "type": "string"
        },
        {
          "internalType": "string",
          "name": "action",
          "type": "string"
        },
        {
          "internalType": "string",
          "name": "location",
          "type": "string"
        },
        {
          "internalType": "uint256",
          "name": "timestamp",
          "type": "uint256"
        },
        {
          "internalType": "address",
          "name": "actor",
          "type": "address"
        },
        {
          "internalType": "string",
          "name": "details",
          "type": "string"
        }
      ],
      "stateMutability": "view",
      "type": "function"
    },
    {
      "inputs": [
        {
          "internalType": "string",
          "name": "_productId",
          "type": "string"
        },
        {
          "internalType": "string",
          "name": "_name",
          "type": "string"
        },
        {
          "internalType": "string",
          "name": "_description",
          "type": "string"
        },
        {
          "internalType": "string",
          "name": "_location",
          "type": "string"
        },
        {
          "internalType": "string",
          "name": "_certification",
          "type": "string"
        }
      ],
      "name": "updateProduct",
      "outputs": [],
      "stateMutability": "nonpayable",
      "type": "function"
    },
    {
      "inputs": [
        {
          "internalType": "string",
          "name": "_productId",
          "type": "string"
        },
        {
          "internalType": "bool",
          "name": "_verified",
          "type": "bool"
        }
      ],
      "name": "verifyProduct",
      "outputs": [],
      "stateMutability": "nonpayable",
      "type": "function"
    }
  ],
  "bytecode": "0x608060405234801561001057600080fd5b5033600560006101000a81548173ffffffffffffffffffffffffffffffffffffffff021916908373ffffffffffffffffffffffffffffffffffffffff1602179055506001600260003373ffffffffffffffffffffffffffffffffffffffff1673ffffffffffffffffffffffffffffffffffffffff16815260200190815260200160002060006101000a81548160ff021916908315150217905550613ec6806100b96000396000f3fe6080604052600436106100fe5760003560e01c8063663c01af116100955780638addc051116100645780638addc0511461037c5780638da5cb5b146103b9578063c7d3732b146103e4578063dde1bbcf1461040d578063e0f6ef871461044a576100fe565b8063663c01af1461029e57806368111cce146102c95780637e9caae814610310578063851d07d614610353576100fe565b80632b90233f116100d15780632b90233f146101f35780632bb572101461021c578063364e022f1461025957806361b0338214610275576100fe565b80630186a423146101035780630e0472081461014b5780631828983a146101745780632427e932146101b1575b600080fd5b34801561010f57600080fd5b5061012a60048036038101906101259190612981565b610475565b6040516101429c9b9a99989796959493929190612abe565b60405180910390f35b34801561015757600080fd5b50610172600480360381019061016d9190612bfa565b610868565b005b34801561018057600080fd5b5061019b60048036038101906101969190612c3a565b61098c565b6040516101a89190612c67565b60405180910390f35b3480156101bd57600080fd5b506101d860048036038101906101d39190612cae565b6109ac565b6040516101ea96959493929190612d0a565b60405180910390f35b3480156101ff57600080fd5b5061021a60048036038101906102159190612d87565b610dd5565b005b34801561022857600080fd5b50610243600480360381019061023e9190612981565b610f46565b6040516102509190612de3565b60405180910390f35b610273600480360381019061026e9190612981565b610f71565b005b34801561028157600080fd5b5061029c60048036038101906102979190612dfe565b6112d5565b005b3480156102aa57600080fd5b506102b3611522565b6040516102c09190612fe1565b60405180910390f35b3480156102d557600080fd5b506102f060048036038101906102eb9190612981565b6115fb565b6040516103079b9a99989796959493929190613003565b60405180910390f35b34801561031c57600080fd5b5061033760048036038101906103329190612cae565b611b57565b60405161034a97969594939291906130d1565b60405180910390f35b34801561035f57600080fd5b5061037a60048036038101906103759190613163565b611e94565b005b34801561038857600080fd5b506103a3600480360381019061039e9190612981565b6121ad565b6040516103b09190612c67565b60405180910390f35b3480156103c557600080fd5b506103ce6121e3565b6040516103db919061326a565b60405180910390f35b3480156103f057600080fd5b5061040b60048036038101906104069190613285565b612209565b005b34801561041957600080fd5b50610434600480360381019061042f91906133e3565b6125ed565b6040516104419190613410565b60405180910390f35b34801561045657600080fd5b5061045f612699565b60405161046c9190612de3565b60405180910390f35b6000818051602081018201805184825260208301602085012081835280955050505050506000915090508060000180546104ae90613461565b80601f01602080910402602001604051908101604052809291908181526020018280546104da90613461565b80156105275780601f106104fc57610100808354040283529160200191610527565b820191906000526020600020905b81548152906001019060200180831161050a57829003601f168201915b50505050509080600101805461053c90613461565b80601f016020809104026020016040519081016040528092919081815260200182805461056890613461565b80156105b55780601f1061058a576101008083540402835291602001916105b5565b820191906000526020600020905b81548152906001019060200180831161059857829003601f168201915b5050505050908060020180546105ca90613461565b80601f01602080910402602001604051908101604052809291908181526020018280546105f690613461565b80156106435780601f1061061857610100808354040283529160200191610643565b820191906000526020600020905b81548152906001019060200180831161062657829003601f168201915b50505050509080600301805461065890613461565b80601f016020809104026020016040519081016040528092919081815260200182805461068490613461565b80156106d15780601f106106a6576101008083540402835291602001916106d1565b820191906000526020600020905b8154815290600101906020018083116106b457829003601f168201915b5050505050908060040154908060050180546106ec90613461565b80601f016020809104026020016040519081016040528092919081815260200182805461071890613461565b80156107655780601f1061073a57610100808354040283529160200191610765565b820191906000526020600020905b81548152906001019060200180831161074857829003601f168201915b50505050509080600601805461077a90613461565b80601f01602080910402602001604051908101604052809291908181526020018280546107a690613461565b80156107f35780601f106107c8576101008083540402835291602001916107f3565b820191906000526020600020905b8154815290600101906020018083116107d657829003601f168201915b5050505050908060070160009054906101000a900460ff16908060080154908060090160009054906101000a900473ffffffffffffffffffffffffffffffffffffffff169080600a01549080600b0160009054906101000a900473ffffffffffffffffffffffffffffffffffffffff1690508c565b600560009054906101000a900473ffffffffffffffffffffffffffffffffffffffff1673ffffffffffffffffffffffffffffffffffffffff163373ffffffffffffffffffffffffffffffffffffffff16146108f8576040517f08c379a00000000000000000000000000000000000000000000000000000000081526004016108ef90613504565b60405180910390fd5b80600260008473ffffffffffffffffffffffffffffffffffffffff1673ffffffffffffffffffffffffffffffffffffffff16815260200190815260200160002060006101000a81548160ff0219169083151502179055507f570b956a171c3a77d080bd03f4e6e3d0c536bf680da7603ab537b56e768d76df8282604051610980929190613524565b60405180910390a15050565b60026020528060005260406000206000915054906101000a900460ff1681565b606080606060008060606001886040516109c69190613589565b9081526020016040518091039020805490508710610a19576040517f08c379a0000000000000000000000000000000000000000000000000000000008152600401610a10906135ec565b60405180910390fd5b6000600189604051610a2b9190613589565b90815260200160405180910390208881548110610a4b57610a4a61360c565b5b90600052602060002090600702016040518060e0016040529081600082018054610a7490613461565b80601f0160208091040260200160405190810160405280929190818152602001828054610aa090613461565b8015610aed5780601f10610ac257610100808354040283529160200191610aed565b820191906000526020600020905b815481529060010190602001808311610ad057829003601f168201915b50505050508152602001600182018054610b0690613461565b80601f0160208091040260200160405190810160405280929190818152602001828054610b3290613461565b8015610b7f5780601f10610b5457610100808354040283529160200191610b7f565b820191906000526020600020905b815481529060010190602001808311610b6257829003601f168201915b50505050508152602001600282018054610b9890613461565b80601f0160208091040260200160405190810160405280929190818152602001828054610bc490613461565b8015610c115780601f10610be657610100808354040283529160200191610c11565b820191906000526020600020905b815481529060010190602001808311610bf457829003601f168201915b50505050508152602001600382018054610c2a90613461565b80601f0160208091040260200160405190810160405280929190818152602001828054610c5690613461565b8015610ca35780601f10610c7857610100808354040283529160200191610ca3565b820191906000526020600020905b815481529060010190602001808311610c8657829003601f168201915b50505050508152602001600482015481526020016005820160009054906101000a900473ffffffffffffffffffffffffffffffffffffffff1673ffffffffffffffffffffffffffffffffffffffff1673ffffffffffffffffffffffffffffffffffffffff168152602001600682018054610d1c90613461565b80601f0160208091040260200160405190810160405280929190818152602001828054610d4890613461565b8015610d955780601f10610d6a57610100808354040283529160200191610d95565b820191906000526020600020905b815481529060010190602001808311610d7857829003601f168201915b505050505081525050905080600001518160400151826060015183608001518460a001518560c00151965096509650965096509650509295509295509295565b600560009054906101000a900473ffffffffffffffffffffffffffffffffffffffff1673ffffffffffffffffffffffffffffffffffffffff163373ffffffffffffffffffffffffffffffffffffffff1614610e65576040517f08c379a0000000000000000000000000000000000000000000000000000000008152600401610e5c90613504565b60405180910390fd5b600382604051610e759190613589565b908152602001604051809103902060009054906101000a900460ff16610ed0576040517f08c379a0000000000000000000000000000000000000000000000000000000008152600401610ec790613687565b60405180910390fd5b80600083604051610ee19190613589565b908152602001604051809103902060070160006101000a81548160ff0219169083151502179055507f344ba70057b3572137fc8714c11111786b52a6098c0002e23754e3c3d60255198282604051610f3a9291906136a7565b60405180910390a15050565b6000600182604051610f589190613589565b9081526020016040518091039020805490509050919050565b600381604051610f819190613589565b908152602001604051809103902060009054906101000a900460ff16610fdc576040517f08c379a0000000000000000000000000000000000000000000000000000000008152600401610fd390613687565b60405180910390fd5b60008082604051610fed9190613589565b9081526020016040518091039020905080600b0160009054906101000a900473ffffffffffffffffffffffffffffffffffffffff1673ffffffffffffffffffffffffffffffffffffffff163373ffffffffffffffffffffffffffffffffffffffff160361108f576040517f08c379a000000000000000000000000000000000000000000000000000000000815260040161108690613749565b60405180910390fd5b80600a01543410156110d6576040517f08c379a00000000000000000000000000000000000000000000000000000000081526004016110cd906137b5565b60405180910390fd5b600081600b0160009054906101000a900473ffffffffffffffffffffffffffffffffffffffff169050600082600a015490503383600b0160006101000a81548173ffffffffffffffffffffffffffffffffffffffff021916908373ffffffffffffffffffffffffffffffffffffffff1602179055508173ffffffffffffffffffffffffffffffffffffffff166108fc829081150290604051600060405180830381858888f19350505050158015611191573d6000803e3d6000fd5b50611294846040518060400160405280600981526020017f50555243484153454400000000000000000000000000000000000000000000008152508560030180546111db90613461565b80601f016020809104026020016040519081016040528092919081815260200182805461120790613461565b80156112545780601f1061122957610100808354040283529160200191611254565b820191906000526020600020905b81548152906001019060200180831161123757829003601f168201915b50505050506040518060400160405280601e81526020017f50726f6475637420707572636861736564206279206e6577206f776e657200008152506112d5565b7fa01f770152e1284476c7c33824cb0726ad83c78f17f850cda9de6bbdb7f2a1f68433836040516112c7939291906137d5565b60405180910390a150505050565b6003846040516112e59190613589565b908152602001604051809103902060009054906101000a900460ff16611340576040517f08c379a000000000000000000000000000000000000000000000000000000000815260040161133790613687565b60405180910390fd5b60008461136d6001876040516113569190613589565b90815260200160405180910390208054905061269f565b60405160200161137e92919061385f565b604051602081830303815290604052905060018560405161139f9190613589565b90815260200160405180910390206040518060e001604052808381526020018781526020018681526020018581526020014281526020013373ffffffffffffffffffffffffffffffffffffffff16815260200184815250908060018154018082558091505060019003906000526020600020906007020160009091909190915060008201518160000190816114349190613a3a565b50602082015181600101908161144a9190613a3a565b5060408201518160020190816114609190613a3a565b5060608201518160030190816114769190613a3a565b506080820151816004015560a08201518160050160006101000a81548173ffffffffffffffffffffffffffffffffffffffff021916908373ffffffffffffffffffffffffffffffffffffffff16021790555060c08201518160060190816114dd9190613a3a565b5050507f233f8de2458bea2a76b83bdff2dc534c0080c24901d089cd0ca8c5ec4c118c2585853360405161151393929190613b0c565b60405180910390a15050505050565b60606004805480602002602001604051908101604052809291908181526020016000905b828210156115f257838290600052602060002001805461156590613461565b80601f016020809104026020016040519081016040528092919081815260200182805461159190613461565b80156115de5780601f106115b3576101008083540402835291602001916115de565b820191906000526020600020905b8154815290600101906020018083116115c157829003601f168201915b505050505081526020019060010190611546565b50505050905090565b60608060606000606080600080600080600060038c60405161161d9190613589565b908152602001604051809103902060009054906101000a900460ff16611678576040517f08c379a000000000000000000000000000000000000000000000000000000000815260040161166f90613687565b60405180910390fd5b6000808d6040516116899190613589565b9081526020016040518091039020604051806101800160405290816000820180546116b390613461565b80601f01602080910402602001604051908101604052809291908181526020018280546116df90613461565b801561172c5780601f106117015761010080835404028352916020019161172c565b820191906000526020600020905b81548152906001019060200180831161170f57829003601f168201915b5050505050815260200160018201805461174590613461565b80601f016020809104026020016040519081016040528092919081815260200182805461177190613461565b80156117be5780601f10611793576101008083540402835291602001916117be565b820191906000526020600020905b8154815290600101906020018083116117a157829003601f168201915b505050505081526020016002820180546117d790613461565b80601f016020809104026020016040519081016040528092919081815260200182805461180390613461565b80156118505780601f1061182557610100808354040283529160200191611850565b820191906000526020600020905b81548152906001019060200180831161183357829003601f168201915b5050505050815260200160038201805461186990613461565b80601f016020809104026020016040519081016040528092919081815260200182805461189590613461565b80156118e25780601f106118b7576101008083540402835291602001916118e2565b820191906000526020600020905b8154815290600101906020018083116118c557829003601f168201915b505050505081526020016004820154815260200160058201805461190590613461565b80601f016020809104026020016040519081016040528092919081815260200182805461193190613461565b801561197e5780601f106119535761010080835404028352916020019161197e565b820191906000526020600020905b81548152906001019060200180831161196157829003601f168201915b5050505050815260200160068201805461199790613461565b80601f01602080910402602001604051908101604052809291908181526020018280546119c390613461565b8015611a105780601f106119e557610100808354040283529160200191611a10565b820191906000526020600020905b8154815290600101906020018083116119f357829003601f168201915b505050505081526020016007820160009054906101000a900460ff16151515158152602001600882015481526020016009820160009054906101000a900473ffffffffffffffffffffffffffffffffffffffff1673ffffffffffffffffffffffffffffffffffffffff1673ffffffffffffffffffffffffffffffffffffffff168152602001600a8201548152602001600b820160009054906101000a900473ffffffffffffffffffffffffffffffffffffffff1673ffffffffffffffffffffffffffffffffffffffff1673ffffffffffffffffffffffffffffffffffffffff1681525050905080602001518160400151826060015183608001518460a001518560c001518660e001518761010001518861012001518961014001518a61016001519b509b509b509b509b509b509b509b509b509b509b505091939597999b90929496989a50565b6001828051602081018201805184825260208301602085012081835280955050505050508181548110611b8957600080fd5b906000526020600020906007020160009150915050806000018054611bad90613461565b80601f0160208091040260200160405190810160405280929190818152602001828054611bd990613461565b8015611c265780601f10611bfb57610100808354040283529160200191611c26565b820191906000526020600020905b815481529060010190602001808311611c0957829003601f168201915b505050505090806001018054611c3b90613461565b80601f0160208091040260200160405190810160405280929190818152602001828054611c6790613461565b8015611cb45780601f10611c8957610100808354040283529160200191611cb4565b820191906000526020600020905b815481529060010190602001808311611c9757829003601f168201915b505050505090806002018054611cc990613461565b80601f0160208091040260200160405190810160405280929190818152602001828054611cf590613461565b8015611d425780601f10611d1757610100808354040283529160200191611d42565b820191906000526020600020905b815481529060010190602001808311611d2557829003601f168201915b505050505090806003018054611d5790613461565b80601f0160208091040260200160405190810160405280929190818152602001828054611d8390613461565b8015611dd05780601f10611da557610100808354040283529160200191611dd0565b820191906000526020600020905b815481529060010190602001808311611db357829003601f168201915b5050505050908060040154908060050160009054906101000a900473ffffffffffffffffffffffffffffffffffffffff1690806006018054611e1190613461565b80601f0160208091040260200160405190810160405280929190818152602001828054611e3d90613461565b8015611e8a5780601f10611e5f57610100808354040283529160200191611e8a565b820191906000526020600020905b815481529060010190602001808311611e6d57829003601f168201915b5050505050905087565b600260003373ffffffffffffffffffffffffffffffffffffffff1673ffffffffffffffffffffffffffffffffffffffff16815260200190815260200160002060009054906101000a900460ff1680611f395750600560009054906101000a900473ffffffffffffffffffffffffffffffffffffffff1673ffffffffffffffffffffffffffffffffffffffff163373ffffffffffffffffffffffffffffffffffffffff16145b611f78576040517f08c379a0000000000000000000000000000000000000000000000000000000008152600401611f6f90613b9d565b60405180910390fd5b600385604051611f889190613589565b908152602001604051809103902060009054906101000a900460ff16611fe3576040517f08c379a0000000000000000000000000000000000000000000000000000000008152600401611fda90613687565b60405180910390fd5b600085604051611ff39190613589565b908152602001604051809103902060090160009054906101000a900473ffffffffffffffffffffffffffffffffffffffff1673ffffffffffffffffffffffffffffffffffffffff163373ffffffffffffffffffffffffffffffffffffffff1614806120ab5750600560009054906101000a900473ffffffffffffffffffffffffffffffffffffffff1673ffffffffffffffffffffffffffffffffffffffff163373ffffffffffffffffffffffffffffffffffffffff16145b6120ea576040517f08c379a00000000000000000000000000000000000000000000000000000000081526004016120e190613c09565b60405180910390fd5b836000866040516120fb9190613589565b908152602001604051809103902060010190816121189190613a3a565b508260008660405161212a9190613589565b908152602001604051809103902060020190816121479190613a3a565b50816000866040516121599190613589565b908152602001604051809103902060030190816121769190613a3a565b50806000866040516121889190613589565b908152602001604051809103902060060190816121a59190613a3a565b505050505050565b6003818051602081018201805184825260208301602085012081835280955050505050506000915054906101000a900460ff1681565b600560009054906101000a900473ffffffffffffffffffffffffffffffffffffffff1681565b6003886040516122199190613589565b908152602001604051809103902060009054906101000a900460ff1615612275576040517f08c379a000000000000000000000000000000000000000000000000000000000815260040161226c90613c75565b60405180910390fd5b600081116122b8576040517f08c379a00000000000000000000000000000000000000000000000000000000081526004016122af90613ce1565b60405180910390fd5b6040518061018001604052808981526020018881526020018781526020018681526020018581526020018481526020018381526020016000151581526020014281526020013373ffffffffffffffffffffffffffffffffffffffff1681526020018281526020013373ffffffffffffffffffffffffffffffffffffffff168152506000896040516123499190613589565b9081526020016040518091039020600082015181600001908161236c9190613a3a565b5060208201518160010190816123829190613a3a565b5060408201518160020190816123989190613a3a565b5060608201518160030190816123ae9190613a3a565b506080820151816004015560a08201518160050190816123ce9190613a3a565b5060c08201518160060190816123e49190613a3a565b5060e08201518160070160006101000a81548160ff02191690831515021790555061010082015181600801556101208201518160090160006101000a81548173ffffffffffffffffffffffffffffffffffffffff021916908373ffffffffffffffffffffffffffffffffffffffff16021790555061014082015181600a015561016082015181600b0160006101000a81548173ffffffffffffffffffffffffffffffffffffffff021916908373ffffffffffffffffffffffffffffffffffffffff16021790555090505060016003896040516124c09190613589565b908152602001604051809103902060006101000a81548160ff021916908315150217905550600660008154809291906124f890613d30565b91905055506004889080600181540180825580915050600190039060005260206000200160009091909190915090816125319190613a3a565b506125a8886040518060400160405280600c81526020017f524547495354524154494f4e0000000000000000000000000000000000000000815250876040518060400160405280602081526020017f50726f64756374207265676973746572656420696e20626c6f636b636861696e8152506112d5565b7fdc62d3d2ce3bcf04d8c0c001c3d1b9b793bc83b6a8d7de0cb99d77b4504cb5af8888336040516125db93929190613b0c565b60405180910390a15050505050505050565b600481815481106125fd57600080fd5b90600052602060002001600091509050805461261890613461565b80601f016020809104026020016040519081016040528092919081815260200182805461264490613461565b80156126915780601f1061266657610100808354040283529160200191612691565b820191906000526020600020905b81548152906001019060200180831161267457829003601f168201915b505050505081565b60065481565b6060600082036126e6576040518060400160405280600181526020017f30000000000000000000000000000000000000000000000000000000000000008152509050612822565b600082905060005b6000821461271857808061270190613d30565b915050600a826127119190613da7565b91506126ee565b60008167ffffffffffffffff81111561273457612733612856565b5b6040519080825280601f01601f1916602001820160405280156127665781602001600182028036833780820191505090505b50905060008290505b6000861461281a576001816127849190613dd8565b90506000600a80886127969190613da7565b6127a09190613e0c565b876127ab9190613dd8565b60306127b79190613e5b565b905060008160f81b9050808484815181106127d5576127d461360c565b5b60200101907effffffffffffffffffffffffffffffffffffffffffffffffffffffffffffff1916908160001a905350600a886128119190613da7565b9750505061276f565b819450505050505b919050565b6000604051905090565b600080fd5b600080fd5b600080fd5b600080fd5b6000601f19601f8301169050919050565b7f4e487b7100000000000000000000000000000000000000000000000000000000600052604160045260246000fd5b61288e82612845565b810181811067ffffffffffffffff821117156128ad576128ac612856565b5b80604052505050565b60006128c0612827565b90506128cc8282612885565b919050565b600067ffffffffffffffff8211156128ec576128eb612856565b5b6128f582612845565b9050602081019050919050565b82818337600083830152505050565b600061292461291f846128d1565b6128b6565b9050828152602081018484840111156129405761293f612840565b5b61294b848285612902565b509392505050565b600082601f8301126129685761296761283b565b5b8135612978848260208601612911565b91505092915050565b60006020828403121561299757612996612831565b5b600082013567ffffffffffffffff8111156129b5576129b4612836565b5b6129c184828501612953565b91505092915050565b600081519050919050565b600082825260208201905092915050565b60005b83811015612a045780820151818401526020810190506129e9565b60008484015250505050565b6000612a1b826129ca565b612a2581856129d5565b9350612a358185602086016129e6565b612a3e81612845565b840191505092915050565b6000819050919050565b612a5c81612a49565b82525050565b60008115159050919050565b612a7781612a62565b82525050565b600073ffffffffffffffffffffffffffffffffffffffff82169050919050565b6000612aa882612a7d565b9050919050565b612ab881612a9d565b82525050565b6000610180820190508181036000830152612ad9818f612a10565b90508181036020830152612aed818e612a10565b90508181036040830152612b01818d612a10565b90508181036060830152612b15818c612a10565b9050612b24608083018b612a53565b81810360a0830152612b36818a612a10565b905081810360c0830152612b4a8189612a10565b9050612b5960e0830188612a6e565b612b67610100830187612a53565b612b75610120830186612aaf565b612b83610140830185612a53565b612b91610160830184612aaf565b9d9c50505050505050505050505050565b612bab81612a9d565b8114612bb657600080fd5b50565b600081359050612bc881612ba2565b92915050565b612bd781612a62565b8114612be257600080fd5b50565b600081359050612bf481612bce565b92915050565b60008060408385031215612c1157612c10612831565b5b6000612c1f85828601612bb9565b9250506020612c3085828601612be5565b9150509250929050565b600060208284031215612c5057612c4f612831565b5b6000612c5e84828501612bb9565b91505092915050565b6000602082019050612c7c6000830184612a6e565b92915050565b612c8b81612a49565b8114612c9657600080fd5b50565b600081359050612ca881612c82565b92915050565b60008060408385031215612cc557612cc4612831565b5b600083013567ffffffffffffffff811115612ce357612ce2612836565b5b612cef85828601612953565b9250506020612d0085828601612c99565b9150509250929050565b600060c0820190508181036000830152612d248189612a10565b90508181036020830152612d388188612a10565b90508181036040830152612d4c8187612a10565b9050612d5b6060830186612a53565b612d686080830185612aaf565b81810360a0830152612d7a8184612a10565b9050979650505050505050565b60008060408385031215612d9e57612d9d612831565b5b600083013567ffffffffffffffff811115612dbc57612dbb612836565b5b612dc885828601612953565b9250506020612dd985828601612be5565b9150509250929050565b6000602082019050612df86000830184612a53565b92915050565b60008060008060808587031215612e1857612e17612831565b5b600085013567ffffffffffffffff811115612e3657612e35612836565b5b612e4287828801612953565b945050602085013567ffffffffffffffff811115612e6357612e62612836565b5b612e6f87828801612953565b935050604085013567ffffffffffffffff811115612e9057612e8f612836565b5b612e9c87828801612953565b925050606085013567ffffffffffffffff811115612ebd57612ebc612836565b5b612ec987828801612953565b91505092959194509250565b600081519050919050565b600082825260208201905092915050565b6000819050602082019050919050565b600082825260208201905092915050565b6000612f1d826129ca565b612f278185612f01565b9350612f378185602086016129e6565b612f4081612845565b840191505092915050565b6000612f578383612f12565b905092915050565b6000602082019050919050565b6000612f7782612ed5565b612f818185612ee0565b935083602082028501612f9385612ef1565b8060005b85811015612fcf5784840389528151612fb08582612f4b565b9450612fbb83612f5f565b925060208a01995050600181019050612f97565b50829750879550505050505092915050565b60006020820190508181036000830152612ffb8184612f6c565b905092915050565b600061016082019050818103600083015261301e818e612a10565b90508181036020830152613032818d612a10565b90508181036040830152613046818c612a10565b9050613055606083018b612a53565b8181036080830152613067818a612a10565b905081810360a083015261307b8189612a10565b905061308a60c0830188612a6e565b61309760e0830187612a53565b6130a5610100830186612aaf565b6130b3610120830185612a53565b6130c1610140830184612aaf565b9c9b505050505050505050505050565b600060e08201905081810360008301526130eb818a612a10565b905081810360208301526130ff8189612a10565b905081810360408301526131138188612a10565b905081810360608301526131278187612a10565b90506131366080830186612a53565b61314360a0830185612aaf565b81810360c08301526131558184612a10565b905098975050505050505050565b600080600080600060a0868803121561317f5761317e612831565b5b600086013567ffffffffffffffff81111561319d5761319c612836565b5b6131a988828901612953565b955050602086013567ffffffffffffffff8111156131ca576131c9612836565b5b6131d688828901612953565b945050604086013567ffffffffffffffff8111156131f7576131f6612836565b5b61320388828901612953565b935050606086013567ffffffffffffffff81111561322457613223612836565b5b61323088828901612953565b925050608086013567ffffffffffffffff81111561325157613250612836565b5b61325d88828901612953565b9150509295509295909350565b600060208201905061327f6000830184612aaf565b92915050565b600080600080600080600080610100898b0312156132a6576132a5612831565b5b600089013567ffffffffffffffff8111156132c4576132c3612836565b5b6132d08b828c01612953565b985050602089013567ffffffffffffffff8111156132f1576132f0612836565b5b6132fd8b828c01612953565b975050604089013567ffffffffffffffff81111561331e5761331d612836565b5b61332a8b828c01612953565b965050606089013567ffffffffffffffff81111561334b5761334a612836565b5b6133578b828c01612953565b95505060806133688b828c01612c99565b94505060a089013567ffffffffffffffff81111561338957613388612836565b5b6133958b828c01612953565b93505060c089013567ffffffffffffffff8111156133b6576133b5612836565b5b6133c28b828c01612953565b92505060e06133d38b828c01612c99565b9150509295985092959890939650565b6000602082840312156133f9576133f8612831565b5b600061340784828501612c99565b91505092915050565b6000602082019050818103600083015261342a8184612a10565b905092915050565b7f4e487b7100000000000000000000000000000000000000000000000000000000600052602260045260246000fd5b6000600282049050600182168061347957607f821691505b60208210810361348c5761348b613432565b5b50919050565b7f4f6e6c79206f776e65722063616e20706572666f726d2074686973206163746960008201527f6f6e000000000000000000000000000000000000000000000000000000000000602082015250565b60006134ee6022836129d5565b91506134f982613492565b604082019050919050565b6000602082019050818103600083015261351d816134e1565b9050919050565b60006040820190506135396000830185612aaf565b6135466020830184612a6e565b9392505050565b600081905092915050565b6000613563826129ca565b61356d818561354d565b935061357d8185602086016129e6565b80840191505092915050565b60006135958284613558565b915081905092915050565b7f5374657020646f6573206e6f7420657869737400000000000000000000000000600082015250565b60006135d66013836129d5565b91506135e1826135a0565b602082019050919050565b60006020820190508181036000830152613605816135c9565b9050919050565b7f4e487b7100000000000000000000000000000000000000000000000000000000600052603260045260246000fd5b7f50726f6475637420646f6573206e6f7420657869737400000000000000000000600082015250565b60006136716016836129d5565b915061367c8261363b565b602082019050919050565b600060208201905081810360008301526136a081613664565b9050919050565b600060408201905081810360008301526136c18185612a10565b90506136d06020830184612a6e565b9392505050565b7f4f776e65722063616e6e6f7420627579207468656972206f776e2070726f647560008201527f6374000000000000000000000000000000000000000000000000000000000000602082015250565b60006137336022836129d5565b915061373e826136d7565b604082019050919050565b6000602082019050818103600083015261376281613726565b9050919050565b7f4e6f7420656e6f756768204554482073656e7400000000000000000000000000600082015250565b600061379f6013836129d5565b91506137aa82613769565b602082019050919050565b600060208201905081810360008301526137ce81613792565b9050919050565b600060608201905081810360008301526137ef8186612a10565b90506137fe6020830185612aaf565b61380b6040830184612a53565b949350505050565b7f2d00000000000000000000000000000000000000000000000000000000000000600082015250565b600061384960018361354d565b915061385482613813565b600182019050919050565b600061386b8285613558565b91506138768261383c565b91506138828284613558565b91508190509392505050565b60008190508160005260206000209050919050565b60006020601f8301049050919050565b600082821b905092915050565b6000600883026138f07fffffffffffffffffffffffffffffffffffffffffffffffffffffffffffffffff826138b3565b6138fa86836138b3565b95508019841693508086168417925050509392505050565b6000819050919050565b600061393761393261392d84612a49565b613912565b612a49565b9050919050565b6000819050919050565b6139518361391c565b61396561395d8261393e565b8484546138c0565b825550505050565b600090565b61397a61396d565b613985818484613948565b505050565b5b818110156139a95761399e600082613972565b60018101905061398b565b5050565b601f8211156139ee576139bf8161388e565b6139c8846138a3565b810160208510156139d7578190505b6139eb6139e3856138a3565b83018261398a565b50505b505050565b600082821c905092915050565b6000613a11600019846008026139f3565b1980831691505092915050565b6000613a2a8383613a00565b9150826002028217905092915050565b613a43826129ca565b67ffffffffffffffff811115613a5c57613a5b612856565b5b613a668254613461565b613a718282856139ad565b600060209050601f831160018114613aa45760008415613a92578287015190505b613a9c8582613a1e565b865550613b04565b601f198416613ab28661388e565b60005b82811015613ada57848901518255600182019150602085019450602081019050613ab5565b86831015613af75784890151613af3601f891682613a00565b8355505b6001600288020188555050505b505050505050565b60006060820190508181036000830152613b268186612a10565b90508181036020830152613b3a8185612a10565b9050613b496040830184612aaf565b949350505050565b7f4e6f7420617574686f72697a6564000000000000000000000000000000000000600082015250565b6000613b87600e836129d5565b9150613b9282613b51565b602082019050919050565b60006020820190508181036000830152613bb681613b7a565b9050919050565b7f4e6f7420617574686f72697a656420746f207570646174650000000000000000600082015250565b6000613bf36018836129d5565b9150613bfe82613bbd565b602082019050919050565b60006020820190508181036000830152613c2281613be6565b9050919050565b7f50726f6475637420616c72656164792065786973747300000000000000000000600082015250565b6000613c5f6016836129d5565b9150613c6a82613c29565b602082019050919050565b60006020820190508181036000830152613c8e81613c52565b9050919050565b7f5072696365206d7573742062652067726561746572207468616e203000000000600082015250565b6000613ccb601c836129d5565b9150613cd682613c95565b602082019050919050565b60006020820190508181036000830152613cfa81613cbe565b9050919050565b7f4e487b7100000000000000000000000000000000000000000000000000000000600052601160045260246000fd5b6000613d3b82612a49565b91507fffffffffffffffffffffffffffffffffffffffffffffffffffffffffffffffff8203613d6d57613d6c613d01565b5b600182019050919050565b7f4e487b7100000000000000000000000000000000000000000000000000000000600052601260045260246000fd5b6000613db282612a49565b9150613dbd83612a49565b925082613dcd57613dcc613d78565b5b828204905092915050565b6000613de382612a49565b9150613dee83612a49565b9250828203905081811115613e0657613e05613d01565b5b92915050565b6000613e1782612a49565b9150613e2283612a49565b9250828202613e3081612a49565b91508282048414831517613e4757613e46613d01565b5b5092915050565b600060ff82169050919050565b6000613e6682613e4e565b9150613e7183613e4e565b9250828201905060ff811115613e8a57613e89613d01565b5b9291505056fea2646970667358221220cb4295ef1318fe23fcf0a329f95f27fd291d0d435a4e773e093c618cacad6d6264736f6c63430008110033",
  "linkReferences": {},
  "deployedLinkReferences": {}
}