{
  "_format": "hh-sol-artifact-1",
  "contractName": "ProductRegistry",
  "sourceName": "contracts/ProductRegistry.sol",
  "abi": [
    {
      "inputs": [],
      "stateMutability": "nonpayable",
      "type": "constructor"
    },
    {
      "anonymous": false,
      "inputs": [
        {
          "indexed": false,
          "internalType": "string",
          "name": "productId",
          "type": "string"
        },
        {
          "indexed": false,
          "internalType": "address",
          "name": "buyer",
          "type": "address"
        },
        {
          "indexed": false,
          "internalType": "uint256",
          "name": "price",
          "type": "uint256"
        }
      ],
      "name": "ProductPurchased",
      "type": "event"
    },
    {
      "anonymous": false,
      "inputs": [
        {
          "indexed": false,
          "internalType": "string",
          "name": "productId",
          "type": "string"
        },
        {
          "indexed": false,
          "internalType": "string",
          "name": "name",
          "type": "string"
        },
        {
          "indexed": false,
          "internalType": "address",
          "name": "farmer",
          "type": "address"
        }
      ],
      "name": "ProductRegistered",
      "type": "event"
    },
    {
      "anonymous": false,
      "inputs": [
        {
          "indexed": false,
          "internalType": "string",
          "name": "productId",
          "type": "string"
        },
        {
          "indexed": false,
          "internalType": "bool",
          "name": "verified",
          "type": "bool"
        }
      ],
      "name": "ProductVerified",
      "type": "event"
    },
    {
      "anonymous": false,
      "inputs": [
        {
          "indexed": false,
          "internalType": "string",
          "name": "productId",
          "type": "string"
        },
        {
          "indexed": false,
          "internalType": "string",
          "name": "action",
          "type": "string"
        },
        {
          "indexed": false,
          "internalType": "address",
          "name": "actor",
          "type": "address"
        }
      ],
      "name": "SupplyChainUpdated",
      "type": "event"
    },
    {
      "anonymous": false,
      "inputs": [
        {
          "indexed": false,
          "internalType": "address",
          "name": "user",
          "type": "address"
        },
        {
          "indexed": false,
          "internalType": "bool",
          "name": "authorized",
          "type": "bool"
        }
      ],
      "name": "UserAuthorized",
      "type": "event"
    },
    {
      "inputs": [
        {
          "internalType": "string",
          "name": "_productId",
          "type": "string"
        },
        {
          "internalType": "string",
          "name": "_action",
          "type": "string"
        },
        {
          "internalType": "string",
          "name": "_location",
          "type": "string"
        },
        {
          "internalType": "string",
          "name": "_details",
          "type": "string"
        }
      ],
      "name": "addSupplyChainStep",
      "outputs": [],
      "stateMutability": "nonpayable",
      "type": "function"
    },
    {
      "inputs": [
        {
          "internalType": "uint256",
          "name": "",
          "type": "uint256"
        }
      ],
      "name": "allProductIds",
      "outputs": [
        {
          "internalType": "string",
          "name": "",
          "type": "string"
        }
      ],
      "stateMutability": "view",
      "type": "function"
    },
    {
      "inputs": [
        {
          "internalType": "address",
          "name": "_user",
          "type": "address"
        },
        {
          "internalType": "bool",
          "name": "_authorized",
          "type": "bool"
        }
      ],
      "name": "authorizeUser",
      "outputs": [],
      "stateMutability": "nonpayable",
      "type": "function"
    },
    {
      "inputs": [
        {
          "internalType": "address",
          "name": "",
          "type": "address"
        }
      ],
      "name": "authorizedUsers",
      "outputs": [
        {
          "internalType": "bool",
          "name": "",
          "type": "bool"
        }
      ],
      "stateMutability": "view",
      "type": "function"
    },
    {
      "inputs": [
        {
          "internalType": "string",
          "name": "_productId",
          "type": "string"
        }
      ],
      "name": "buyProduct",
      "outputs": [],
      "stateMutability": "payable",
      "type": "function"
    },
    {
      "inputs": [],
      "name": "getAllProductIds",
      "outputs": [
        {
          "internalType": "string[]",
          "name": "",
          "type": "string[]"
        }
      ],
      "stateMutability": "view",
      "type": "function"
    },
    {
      "inputs": [
        {
          "internalType": "string",
          "name": "_productId",
          "type": "string"
        }
      ],
      "name": "getProduct",
      "outputs": [
        {
          "internalType": "string",
          "name": "name",
          "type": "string"
        },
        {
          "internalType": "string",
          "name": "description",
          "type": "string"
        },
        {
          "internalType": "string",
          "name": "location",
          "type": "string"
        },
        {
          "internalType": "uint256",
          "name": "harvestDate",
          "type": "uint256"
        },
        {
          "internalType": "string",
          "name": "farmer",
          "type": "string"
        },
        {
          "internalType": "string",
          "name": "certification",
          "type": "string"
        },
        {
          "internalType": "bool",
          "name": "isVerified",
          "type": "bool"
        },
        {
          "internalType": "uint256",
          "name": "timestamp",
          "type": "uint256"
        },
        {
          "internalType": "address",
          "name": "registeredBy",
          "type": "address"
        },
        {
          "internalType": "uint256",
          "name": "price",
          "type": "uint256"
        },
        {
          "internalType": "address",
          "name": "owner",
          "type": "address"
        }
      ],
      "stateMutability": "view",
      "type": "function"
    },
    {
      "inputs": [
        {
          "internalType": "string",
          "name": "_productId",
          "type": "string"
        }
      ],
      "name": "getSupplyChainLength",
      "outputs": [
        {
          "internalType": "uint256",
          "name": "",
          "type": "uint256"
        }
      ],
      "stateMutability": "view",
      "type": "function"
    },
    {
      "inputs": [
        {
          "internalType": "string",
          "name": "_productId",
          "type": "string"
        },
        {
          "internalType": "uint256",
          "name": "_index",
          "type": "uint256"
        }
      ],
      "name": "getSupplyChainStep",
      "outputs": [
        {
          "internalType": "string",
          "name": "stepId",
          "type": "string"
        },
        {
          "internalType": "string",
          "name": "action",
          "type": "string"
        },
        {
          "internalType": "string",
          "name": "location",
          "type": "string"
        },
        {
          "internalType": "uint256",
          "name": "timestamp",
          "type": "uint256"
        },
        {
          "internalType": "address",
          "name": "actor",
          "type": "address"
        },
        {
          "internalType": "string",
          "name": "details",
          "type": "string"
        }
      ],
      "stateMutability": "view",
      "type": "function"
    },
    {
      "inputs": [],
      "name": "owner",
      "outputs": [
        {
          "internalType": "address",
          "name": "",
          "type": "address"
        }
      ],
      "stateMutability": "view",
      "type": "function"
    },
    {
      "inputs": [],
      "name": "productCount",
      "outputs": [
        {
          "internalType": "uint256",
          "name": "",
          "type": "uint256"
        }
      ],
      "stateMutability": "view",
      "type": "function"
    },
    {
      "inputs": [
        {
          "internalType": "string",
          "name": "",
          "type": "string"
        }
      ],
      "name": "productExists",
      "outputs": [
        {
          "internalType": "bool",
          "name": "",
          "type": "bool"
        }
      ],
      "stateMutability": "view",
      "type": "function"
    },
    {
      "inputs": [
        {
          "internalType": "string",
          "name": "",
          "type": "string"
        }
      ],
      "name": "products",
      "outputs": [
        {
          "internalType": "string",
          "name": "productId",
          "type": "string"
        },
        {
          "internalType": "string",
          "name": "name",
          "type": "string"
        },
        {
          "internalType": "string",
          "name": "description",
          "type": "string"
        },
        {
          "internalType": "string",
          "name": "location",
          "type": "string"
        },
        {
          "internalType": "uint256",
          "name": "harvestDate",
          "type": "uint256"
        },
        {
          "internalType": "string",
          "name": "farmer",
          "type": "string"
        },
        {
          "internalType": "string",
          "name": "certification",
          "type": "string"
        },
        {
          "internalType": "bool",
          "name": "isVerified",
          "type": "bool"
        },
        {
          "internalType": "uint256",
          "name": "timestamp",
          "type": "uint256"
        },
        {
          "internalType": "address",
          "name": "registeredBy",
          "type": "address"
        },
        {
          "internalType": "uint256",
          "name": "price",
          "type": "uint256"
        },
        {
          "internalType": "address",
          "name": "owner",
          "type": "address"
        }
      ],
      "stateMutability": "view",
      "type": "function"
    },
    {
      "inputs": [
        {
          "internalType": "string",
          "name": "_productId",
          "type": "string"
        },
        {
          "internalType": "string",
          "name": "_name",
          "type": "string"
        },
        {
          "internalType": "string",
          "name": "_description",
          "type": "string"
        },
        {
          "internalType": "string",
          "name": "_location",
          "type": "string"
        },
        {
          "internalType": "uint256",
          "name": "_harvestDate",
          "type": "uint256"
        },
        {
          "internalType": "string",
          "name": "_farmer",
          "type": "string"
        },
        {
          "internalType": "string",
          "name": "_certification",
          "type": "string"
        },
        {
          "internalType": "uint256",
          "name": "_price",
          "type": "uint256"
        }
      ],
      "name": "registerProduct",
      "outputs": [],
      "stateMutability": "nonpayable",
      "type": "function"
    },
    {
      "inputs": [
        {
          "internalType": "string",
          "name": "",
          "type": "string"
        },
        {
          "internalType": "uint256",
          "name": "",
          "type": "uint256"
        }
      ],
      "name": "supplyChain",
      "outputs": [
        {
          "internalType": "string",
          "name": "stepId",
          "type": "string"
        },
        {
          "internalType": "string",
          "name": "productId",
          "type": "string"
        },
        {
          "internalType": "string",
          "name": "action",
          "type": "string"
        },
        {
          "internalType": "string",
          "name": "location",
          "type": "string"
        },
        {
          "internalType": "uint256",
          "name": "timestamp",
          "type": "uint256"
        },
        {
          "internalType": "address",
          "name": "actor",
          "type": "address"
        },
        {
          "internalType": "string",
          "name": "details",
          "type": "string"
        }
      ],
      "stateMutability": "view",
      "type": "function"
    },
    {
      "inputs": [
        {
          "internalType": "string",
          "name": "_productId",
          "type": "string"
        },
        {
          "internalType": "string",
          "name": "_name",
          "type": "string"
        },
        {
          "internalType": "string",
          "name": "_description",
          "type": "string"
        },
        {
          "internalType": "string",
          "name": "_location",
          "type": "string"
        },
        {
          "internalType": "string",
          "name": "_certification",
          "type": "string"
        }
      ],
      "name": "updateProduct",
      "outputs": [],
      "stateMutability": "nonpayable",
      "type": "function"
    },
    {
      "inputs": [
        {
          "internalType": "string",
          "name": "_productId",
          "type": "string"
        },
        {
          "internalType": "bool",
          "name": "_verified",
          "type": "bool"
        }
      ],
      "name": "verifyProduct",
      "outputs": [],
      "stateMutability": "nonpayable",
      "type": "function"
    }
  ],
  "bytecode": "0x608060405234801561001057600080fd5b5033600560006101000a81548173ffffffffffffffffffffffffffffffffffffffff021916908373ffffffffffffffffffffffffffffffffffffffff1602179055506001600260003373ffffffffffffffffffffffffffffffffffffffff1673ffffffffffffffffffffffffffffffffffffffff16815260200190815260200160002060006101000a81548160ff021916908315150217905550613faa806100b96000396000f3fe6080604052600436106100fe5760003560e01c8063663c01af116100955780638addc051116100645780638addc0511461037c5780638da5cb5b146103b9578063c7d3732b146103e4578063dde1bbcf1461040d578063e0f6ef871461044a576100fe565b8063663c01af1461029e57806368111cce146102c95780637e9caae814610310578063851d07d614610353576100fe565b80632b90233f116100d15780632b90233f146101f35780632bb572101461021c578063364e022f1461025957806361b0338214610275576100fe565b80630186a423146101035780630e0472081461014b5780631828983a146101745780632427e932146101b1575b600080fd5b34801561010f57600080fd5b5061012a60048036038101906101259190612a65565b610475565b6040516101429c9b9a99989796959493929190612ba2565b60405180910390f35b34801561015757600080fd5b50610172600480360381019061016d9190612cde565b610868565b005b34801561018057600080fd5b5061019b60048036038101906101969190612d1e565b61098c565b6040516101a89190612d4b565b60405180910390f35b3480156101bd57600080fd5b506101d860048036038101906101d39190612d92565b6109ac565b6040516101ea96959493929190612dee565b60405180910390f35b3480156101ff57600080fd5b5061021a60048036038101906102159190612e6b565b610dd5565b005b34801561022857600080fd5b50610243600480360381019061023e9190612a65565b610f46565b6040516102509190612ec7565b60405180910390f35b610273600480360381019061026e9190612a65565b610f71565b005b34801561028157600080fd5b5061029c60048036038101906102979190612ee2565b6112d5565b005b3480156102aa57600080fd5b506102b3611606565b6040516102c091906130c5565b60405180910390f35b3480156102d557600080fd5b506102f060048036038101906102eb9190612a65565b6116df565b6040516103079b9a999897969594939291906130e7565b60405180910390f35b34801561031c57600080fd5b5061033760048036038101906103329190612d92565b611c3b565b60405161034a97969594939291906131b5565b60405180910390f35b34801561035f57600080fd5b5061037a60048036038101906103759190613247565b611f78565b005b34801561038857600080fd5b506103a3600480360381019061039e9190612a65565b612291565b6040516103b09190612d4b565b60405180910390f35b3480156103c557600080fd5b506103ce6122c7565b6040516103db919061334e565b60405180910390f35b3480156103f057600080fd5b5061040b60048036038101906104069190613369565b6122ed565b005b34801561041957600080fd5b50610434600480360381019061042f91906134c7565b6126d1565b60405161044191906134f4565b60405180910390f35b34801561045657600080fd5b5061045f61277d565b60405161046c9190612ec7565b60405180910390f35b6000818051602081018201805184825260208301602085012081835280955050505050506000915090508060000180546104ae90613545565b80601f01602080910402602001604051908101604052809291908181526020018280546104da90613545565b80156105275780601f106104fc57610100808354040283529160200191610527565b820191906000526020600020905b81548152906001019060200180831161050a57829003601f168201915b50505050509080600101805461053c90613545565b80601f016020809104026020016040519081016040528092919081815260200182805461056890613545565b80156105b55780601f1061058a576101008083540402835291602001916105b5565b820191906000526020600020905b81548152906001019060200180831161059857829003601f168201915b5050505050908060020180546105ca90613545565b80601f01602080910402602001604051908101604052809291908181526020018280546105f690613545565b80156106435780601f1061061857610100808354040283529160200191610643565b820191906000526020600020905b81548152906001019060200180831161062657829003601f168201915b50505050509080600301805461065890613545565b80601f016020809104026020016040519081016040528092919081815260200182805461068490613545565b80156106d15780601f106106a6576101008083540402835291602001916106d1565b820191906000526020600020905b8154815290600101906020018083116106b457829003601f168201915b5050505050908060040154908060050180546106ec90613545565b80601f016020809104026020016040519081016040528092919081815260200182805461071890613545565b80156107655780601f1061073a57610100808354040283529160200191610765565b820191906000526020600020905b81548152906001019060200180831161074857829003601f168201915b50505050509080600601805461077a90613545565b80601f01602080910402602001604051908101604052809291908181526020018280546107a690613545565b80156107f35780601f106107c8576101008083540402835291602001916107f3565b820191906000526020600020905b8154815290600101906020018083116107d657829003601f168201915b5050505050908060070160009054906101000a900460ff16908060080154908060090160009054906101000a900473ffffffffffffffffffffffffffffffffffffffff169080600a01549080600b0160009054906101000a900473ffffffffffffffffffffffffffffffffffffffff1690508c565b600560009054906101000a900473ffffffffffffffffffffffffffffffffffffffff1673ffffffffffffffffffffffffffffffffffffffff163373ffffffffffffffffffffffffffffffffffffffff16146108f8576040517f08c379a00000000000000000000000000000000000000000000000000000000081526004016108ef906135e8565b60405180910390fd5b80600260008473ffffffffffffffffffffffffffffffffffffffff1673ffffffffffffffffffffffffffffffffffffffff16815260200190815260200160002060006101000a81548160ff0219169083151502179055507f570b956a171c3a77d080bd03f4e6e3d0c536bf680da7603ab537b56e768d76df8282604051610980929190613608565b60405180910390a15050565b60026020528060005260406000206000915054906101000a900460ff1681565b606080606060008060606001886040516109c6919061366d565b9081526020016040518091039020805490508710610a19576040517f08c379a0000000000000000000000000000000000000000000000000000000008152600401610a10906136d0565b60405180910390fd5b6000600189604051610a2b919061366d565b90815260200160405180910390208881548110610a4b57610a4a6136f0565b5b90600052602060002090600702016040518060e0016040529081600082018054610a7490613545565b80601f0160208091040260200160405190810160405280929190818152602001828054610aa090613545565b8015610aed5780601f10610ac257610100808354040283529160200191610aed565b820191906000526020600020905b815481529060010190602001808311610ad057829003601f168201915b50505050508152602001600182018054610b0690613545565b80601f0160208091040260200160405190810160405280929190818152602001828054610b3290613545565b8015610b7f5780601f10610b5457610100808354040283529160200191610b7f565b820191906000526020600020905b815481529060010190602001808311610b6257829003601f168201915b50505050508152602001600282018054610b9890613545565b80601f0160208091040260200160405190810160405280929190818152602001828054610bc490613545565b8015610c115780601f10610be657610100808354040283529160200191610c11565b820191906000526020600020905b815481529060010190602001808311610bf457829003601f168201915b50505050508152602001600382018054610c2a90613545565b80601f0160208091040260200160405190810160405280929190818152602001828054610c5690613545565b8015610ca35780601f10610c7857610100808354040283529160200191610ca3565b820191906000526020600020905b815481529060010190602001808311610c8657829003601f168201915b50505050508152602001600482015481526020016005820160009054906101000a900473ffffffffffffffffffffffffffffffffffffffff1673ffffffffffffffffffffffffffffffffffffffff1673ffffffffffffffffffffffffffffffffffffffff168152602001600682018054610d1c90613545565b80601f0160208091040260200160405190810160405280929190818152602001828054610d4890613545565b8015610d955780601f10610d6a57610100808354040283529160200191610d95565b820191906000526020600020905b815481529060010190602001808311610d7857829003601f168201915b505050505081525050905080600001518160400151826060015183608001518460a001518560c00151965096509650965096509650509295509295509295565b600560009054906101000a900473ffffffffffffffffffffffffffffffffffffffff1673ffffffffffffffffffffffffffffffffffffffff163373ffffffffffffffffffffffffffffffffffffffff1614610e65576040517f08c379a0000000000000000000000000000000000000000000000000000000008152600401610e5c906135e8565b60405180910390fd5b600382604051610e75919061366d565b908152602001604051809103902060009054906101000a900460ff16610ed0576040517f08c379a0000000000000000000000000000000000000000000000000000000008152600401610ec79061376b565b60405180910390fd5b80600083604051610ee1919061366d565b908152602001604051809103902060070160006101000a81548160ff0219169083151502179055507f344ba70057b3572137fc8714c11111786b52a6098c0002e23754e3c3d60255198282604051610f3a92919061378b565b60405180910390a15050565b6000600182604051610f58919061366d565b9081526020016040518091039020805490509050919050565b600381604051610f81919061366d565b908152602001604051809103902060009054906101000a900460ff16610fdc576040517f08c379a0000000000000000000000000000000000000000000000000000000008152600401610fd39061376b565b60405180910390fd5b60008082604051610fed919061366d565b9081526020016040518091039020905080600b0160009054906101000a900473ffffffffffffffffffffffffffffffffffffffff1673ffffffffffffffffffffffffffffffffffffffff163373ffffffffffffffffffffffffffffffffffffffff160361108f576040517f08c379a00000000000000000000000000000000000000000000000000000000081526004016110869061382d565b60405180910390fd5b80600a01543410156110d6576040517f08c379a00000000000000000000000000000000000000000000000000000000081526004016110cd90613899565b60405180910390fd5b600081600b0160009054906101000a900473ffffffffffffffffffffffffffffffffffffffff169050600082600a015490503383600b0160006101000a81548173ffffffffffffffffffffffffffffffffffffffff021916908373ffffffffffffffffffffffffffffffffffffffff1602179055508173ffffffffffffffffffffffffffffffffffffffff166108fc829081150290604051600060405180830381858888f19350505050158015611191573d6000803e3d6000fd5b50611294846040518060400160405280600981526020017f50555243484153454400000000000000000000000000000000000000000000008152508560030180546111db90613545565b80601f016020809104026020016040519081016040528092919081815260200182805461120790613545565b80156112545780601f1061122957610100808354040283529160200191611254565b820191906000526020600020905b81548152906001019060200180831161123757829003601f168201915b50505050506040518060400160405280601e81526020017f50726f6475637420707572636861736564206279206e6577206f776e657200008152506112d5565b7fa01f770152e1284476c7c33824cb0726ad83c78f17f850cda9de6bbdb7f2a1f68433836040516112c7939291906138b9565b60405180910390a150505050565b600260003373ffffffffffffffffffffffffffffffffffffffff1673ffffffffffffffffffffffffffffffffffffffff16815260200190815260200160002060009054906101000a900460ff168061137a5750600560009054906101000a900473ffffffffffffffffffffffffffffffffffffffff1673ffffffffffffffffffffffffffffffffffffffff163373ffffffffffffffffffffffffffffffffffffffff16145b6113b9576040517f08c379a00000000000000000000000000000000000000000000000000000000081526004016113b090613943565b60405180910390fd5b6003846040516113c9919061366d565b908152602001604051809103902060009054906101000a900460ff16611424576040517f08c379a000000000000000000000000000000000000000000000000000000000815260040161141b9061376b565b60405180910390fd5b60008461145160018760405161143a919061366d565b908152602001604051809103902080549050612783565b6040516020016114629291906139af565b6040516020818303038152906040529050600185604051611483919061366d565b90815260200160405180910390206040518060e001604052808381526020018781526020018681526020018581526020014281526020013373ffffffffffffffffffffffffffffffffffffffff16815260200184815250908060018154018082558091505060019003906000526020600020906007020160009091909190915060008201518160000190816115189190613b8a565b50602082015181600101908161152e9190613b8a565b5060408201518160020190816115449190613b8a565b50606082015181600301908161155a9190613b8a565b506080820151816004015560a08201518160050160006101000a81548173ffffffffffffffffffffffffffffffffffffffff021916908373ffffffffffffffffffffffffffffffffffffffff16021790555060c08201518160060190816115c19190613b8a565b5050507f233f8de2458bea2a76b83bdff2dc534c0080c24901d089cd0ca8c5ec4c118c258585336040516115f793929190613c5c565b60405180910390a15050505050565b60606004805480602002602001604051908101604052809291908181526020016000905b828210156116d657838290600052602060002001805461164990613545565b80601f016020809104026020016040519081016040528092919081815260200182805461167590613545565b80156116c25780601f10611697576101008083540402835291602001916116c2565b820191906000526020600020905b8154815290600101906020018083116116a557829003601f168201915b50505050508152602001906001019061162a565b50505050905090565b60608060606000606080600080600080600060038c604051611701919061366d565b908152602001604051809103902060009054906101000a900460ff1661175c576040517f08c379a00000000000000000000000000000000000000000000000000000000081526004016117539061376b565b60405180910390fd5b6000808d60405161176d919061366d565b90815260200160405180910390206040518061018001604052908160008201805461179790613545565b80601f01602080910402602001604051908101604052809291908181526020018280546117c390613545565b80156118105780601f106117e557610100808354040283529160200191611810565b820191906000526020600020905b8154815290600101906020018083116117f357829003601f168201915b5050505050815260200160018201805461182990613545565b80601f016020809104026020016040519081016040528092919081815260200182805461185590613545565b80156118a25780601f10611877576101008083540402835291602001916118a2565b820191906000526020600020905b81548152906001019060200180831161188557829003601f168201915b505050505081526020016002820180546118bb90613545565b80601f01602080910402602001604051908101604052809291908181526020018280546118e790613545565b80156119345780601f1061190957610100808354040283529160200191611934565b820191906000526020600020905b81548152906001019060200180831161191757829003601f168201915b5050505050815260200160038201805461194d90613545565b80601f016020809104026020016040519081016040528092919081815260200182805461197990613545565b80156119c65780601f1061199b576101008083540402835291602001916119c6565b820191906000526020600020905b8154815290600101906020018083116119a957829003601f168201915b50505050508152602001600482015481526020016005820180546119e990613545565b80601f0160208091040260200160405190810160405280929190818152602001828054611a1590613545565b8015611a625780601f10611a3757610100808354040283529160200191611a62565b820191906000526020600020905b815481529060010190602001808311611a4557829003601f168201915b50505050508152602001600682018054611a7b90613545565b80601f0160208091040260200160405190810160405280929190818152602001828054611aa790613545565b8015611af45780601f10611ac957610100808354040283529160200191611af4565b820191906000526020600020905b815481529060010190602001808311611ad757829003601f168201915b505050505081526020016007820160009054906101000a900460ff16151515158152602001600882015481526020016009820160009054906101000a900473ffffffffffffffffffffffffffffffffffffffff1673ffffffffffffffffffffffffffffffffffffffff1673ffffffffffffffffffffffffffffffffffffffff168152602001600a8201548152602001600b820160009054906101000a900473ffffffffffffffffffffffffffffffffffffffff1673ffffffffffffffffffffffffffffffffffffffff1673ffffffffffffffffffffffffffffffffffffffff1681525050905080602001518160400151826060015183608001518460a001518560c001518660e001518761010001518861012001518961014001518a61016001519b509b509b509b509b509b509b509b509b509b509b505091939597999b90929496989a50565b6001828051602081018201805184825260208301602085012081835280955050505050508181548110611c6d57600080fd5b906000526020600020906007020160009150915050806000018054611c9190613545565b80601f0160208091040260200160405190810160405280929190818152602001828054611cbd90613545565b8015611d0a5780601f10611cdf57610100808354040283529160200191611d0a565b820191906000526020600020905b815481529060010190602001808311611ced57829003601f168201915b505050505090806001018054611d1f90613545565b80601f0160208091040260200160405190810160405280929190818152602001828054611d4b90613545565b8015611d985780601f10611d6d57610100808354040283529160200191611d98565b820191906000526020600020905b815481529060010190602001808311611d7b57829003601f168201915b505050505090806002018054611dad90613545565b80601f0160208091040260200160405190810160405280929190818152602001828054611dd990613545565b8015611e265780601f10611dfb57610100808354040283529160200191611e26565b820191906000526020600020905b815481529060010190602001808311611e0957829003601f168201915b505050505090806003018054611e3b90613545565b80601f0160208091040260200160405190810160405280929190818152602001828054611e6790613545565b8015611eb45780601f10611e8957610100808354040283529160200191611eb4565b820191906000526020600020905b815481529060010190602001808311611e9757829003601f168201915b5050505050908060040154908060050160009054906101000a900473ffffffffffffffffffffffffffffffffffffffff1690806006018054611ef590613545565b80601f0160208091040260200160405190810160405280929190818152602001828054611f2190613545565b8015611f6e5780601f10611f4357610100808354040283529160200191611f6e565b820191906000526020600020905b815481529060010190602001808311611f5157829003601f168201915b5050505050905087565b600260003373ffffffffffffffffffffffffffffffffffffffff1673ffffffffffffffffffffffffffffffffffffffff16815260200190815260200160002060009054906101000a900460ff168061201d5750600560009054906101000a900473ffffffffffffffffffffffffffffffffffffffff1673ffffffffffffffffffffffffffffffffffffffff163373ffffffffffffffffffffffffffffffffffffffff16145b61205c576040517f08c379a000000000000000000000000000000000000000000000000000000000815260040161205390613943565b60405180910390fd5b60038560405161206c919061366d565b908152602001604051809103902060009054906101000a900460ff166120c7576040517f08c379a00000000000000000000000000000000000000000000000000000000081526004016120be9061376b565b60405180910390fd5b6000856040516120d7919061366d565b908152602001604051809103902060090160009054906101000a900473ffffffffffffffffffffffffffffffffffffffff1673ffffffffffffffffffffffffffffffffffffffff163373ffffffffffffffffffffffffffffffffffffffff16148061218f5750600560009054906101000a900473ffffffffffffffffffffffffffffffffffffffff1673ffffffffffffffffffffffffffffffffffffffff163373ffffffffffffffffffffffffffffffffffffffff16145b6121ce576040517f08c379a00000000000000000000000000000000000000000000000000000000081526004016121c590613ced565b60405180910390fd5b836000866040516121df919061366d565b908152602001604051809103902060010190816121fc9190613b8a565b508260008660405161220e919061366d565b9081526020016040518091039020600201908161222b9190613b8a565b508160008660405161223d919061366d565b9081526020016040518091039020600301908161225a9190613b8a565b508060008660405161226c919061366d565b908152602001604051809103902060060190816122899190613b8a565b505050505050565b6003818051602081018201805184825260208301602085012081835280955050505050506000915054906101000a900460ff1681565b600560009054906101000a900473ffffffffffffffffffffffffffffffffffffffff1681565b6003886040516122fd919061366d565b908152602001604051809103902060009054906101000a900460ff1615612359576040517f08c379a000000000000000000000000000000000000000000000000000000000815260040161235090613d59565b60405180910390fd5b6000811161239c576040517f08c379a000000000000000000000000000000000000000000000000000000000815260040161239390613dc5565b60405180910390fd5b6040518061018001604052808981526020018881526020018781526020018681526020018581526020018481526020018381526020016000151581526020014281526020013373ffffffffffffffffffffffffffffffffffffffff1681526020018281526020013373ffffffffffffffffffffffffffffffffffffffff1681525060008960405161242d919061366d565b908152602001604051809103902060008201518160000190816124509190613b8a565b5060208201518160010190816124669190613b8a565b50604082015181600201908161247c9190613b8a565b5060608201518160030190816124929190613b8a565b506080820151816004015560a08201518160050190816124b29190613b8a565b5060c08201518160060190816124c89190613b8a565b5060e08201518160070160006101000a81548160ff02191690831515021790555061010082015181600801556101208201518160090160006101000a81548173ffffffffffffffffffffffffffffffffffffffff021916908373ffffffffffffffffffffffffffffffffffffffff16021790555061014082015181600a015561016082015181600b0160006101000a81548173ffffffffffffffffffffffffffffffffffffffff021916908373ffffffffffffffffffffffffffffffffffffffff16021790555090505060016003896040516125a4919061366d565b908152602001604051809103902060006101000a81548160ff021916908315150217905550600660008154809291906125dc90613e14565b91905055506004889080600181540180825580915050600190039060005260206000200160009091909190915090816126159190613b8a565b5061268c886040518060400160405280600c81526020017f524547495354524154494f4e0000000000000000000000000000000000000000815250876040518060400160405280602081526020017f50726f64756374207265676973746572656420696e20626c6f636b636861696e8152506112d5565b7fdc62d3d2ce3bcf04d8c0c001c3d1b9b793bc83b6a8d7de0cb99d77b4504cb5af8888336040516126bf93929190613c5c565b60405180910390a15050505050505050565b600481815481106126e157600080fd5b9060005260206000200160009150905080546126fc90613545565b80601f016020809104026020016040519081016040528092919081815260200182805461272890613545565b80156127755780601f1061274a57610100808354040283529160200191612775565b820191906000526020600020905b81548152906001019060200180831161275857829003601f168201915b505050505081565b60065481565b6060600082036127ca576040518060400160405280600181526020017f30000000000000000000000000000000000000000000000000000000000000008152509050612906565b600082905060005b600082146127fc5780806127e590613e14565b915050600a826127f59190613e8b565b91506127d2565b60008167ffffffffffffffff8111156128185761281761293a565b5b6040519080825280601f01601f19166020018201604052801561284a5781602001600182028036833780820191505090505b50905060008290505b600086146128fe576001816128689190613ebc565b90506000600a808861287a9190613e8b565b6128849190613ef0565b8761288f9190613ebc565b603061289b9190613f3f565b905060008160f81b9050808484815181106128b9576128b86136f0565b5b60200101907effffffffffffffffffffffffffffffffffffffffffffffffffffffffffffff1916908160001a905350600a886128f59190613e8b565b97505050612853565b819450505050505b919050565b6000604051905090565b600080fd5b600080fd5b600080fd5b600080fd5b6000601f19601f8301169050919050565b7f4e487b7100000000000000000000000000000000000000000000000000000000600052604160045260246000fd5b61297282612929565b810181811067ffffffffffffffff821117156129915761299061293a565b5b80604052505050565b60006129a461290b565b90506129b08282612969565b919050565b600067ffffffffffffffff8211156129d0576129cf61293a565b5b6129d982612929565b9050602081019050919050565b82818337600083830152505050565b6000612a08612a03846129b5565b61299a565b905082815260208101848484011115612a2457612a23612924565b5b612a2f8482856129e6565b509392505050565b600082601f830112612a4c57612a4b61291f565b5b8135612a5c8482602086016129f5565b91505092915050565b600060208284031215612a7b57612a7a612915565b5b600082013567ffffffffffffffff811115612a9957612a9861291a565b5b612aa584828501612a37565b91505092915050565b600081519050919050565b600082825260208201905092915050565b60005b83811015612ae8578082015181840152602081019050612acd565b60008484015250505050565b6000612aff82612aae565b612b098185612ab9565b9350612b19818560208601612aca565b612b2281612929565b840191505092915050565b6000819050919050565b612b4081612b2d565b82525050565b60008115159050919050565b612b5b81612b46565b82525050565b600073ffffffffffffffffffffffffffffffffffffffff82169050919050565b6000612b8c82612b61565b9050919050565b612b9c81612b81565b82525050565b6000610180820190508181036000830152612bbd818f612af4565b90508181036020830152612bd1818e612af4565b90508181036040830152612be5818d612af4565b90508181036060830152612bf9818c612af4565b9050612c08608083018b612b37565b81810360a0830152612c1a818a612af4565b905081810360c0830152612c2e8189612af4565b9050612c3d60e0830188612b52565b612c4b610100830187612b37565b612c59610120830186612b93565b612c67610140830185612b37565b612c75610160830184612b93565b9d9c50505050505050505050505050565b612c8f81612b81565b8114612c9a57600080fd5b50565b600081359050612cac81612c86565b92915050565b612cbb81612b46565b8114612cc657600080fd5b50565b600081359050612cd881612cb2565b92915050565b60008060408385031215612cf557612cf4612915565b5b6000612d0385828601612c9d565b9250506020612d1485828601612cc9565b9150509250929050565b600060208284031215612d3457612d33612915565b5b6000612d4284828501612c9d565b91505092915050565b6000602082019050612d606000830184612b52565b92915050565b612d6f81612b2d565b8114612d7a57600080fd5b50565b600081359050612d8c81612d66565b92915050565b60008060408385031215612da957612da8612915565b5b600083013567ffffffffffffffff811115612dc757612dc661291a565b5b612dd385828601612a37565b9250506020612de485828601612d7d565b9150509250929050565b600060c0820190508181036000830152612e088189612af4565b90508181036020830152612e1c8188612af4565b90508181036040830152612e308187612af4565b9050612e3f6060830186612b37565b612e4c6080830185612b93565b81810360a0830152612e5e8184612af4565b9050979650505050505050565b60008060408385031215612e8257612e81612915565b5b600083013567ffffffffffffffff811115612ea057612e9f61291a565b5b612eac85828601612a37565b9250506020612ebd85828601612cc9565b9150509250929050565b6000602082019050612edc6000830184612b37565b92915050565b60008060008060808587031215612efc57612efb612915565b5b600085013567ffffffffffffffff811115612f1a57612f1961291a565b5b612f2687828801612a37565b945050602085013567ffffffffffffffff811115612f4757612f4661291a565b5b612f5387828801612a37565b935050604085013567ffffffffffffffff811115612f7457612f7361291a565b5b612f8087828801612a37565b925050606085013567ffffffffffffffff811115612fa157612fa061291a565b5b612fad87828801612a37565b91505092959194509250565b600081519050919050565b600082825260208201905092915050565b6000819050602082019050919050565b600082825260208201905092915050565b600061300182612aae565b61300b8185612fe5565b935061301b818560208601612aca565b61302481612929565b840191505092915050565b600061303b8383612ff6565b905092915050565b6000602082019050919050565b600061305b82612fb9565b6130658185612fc4565b93508360208202850161307785612fd5565b8060005b858110156130b35784840389528151613094858261302f565b945061309f83613043565b925060208a0199505060018101905061307b565b50829750879550505050505092915050565b600060208201905081810360008301526130df8184613050565b905092915050565b6000610160820190508181036000830152613102818e612af4565b90508181036020830152613116818d612af4565b9050818103604083015261312a818c612af4565b9050613139606083018b612b37565b818103608083015261314b818a612af4565b905081810360a083015261315f8189612af4565b905061316e60c0830188612b52565b61317b60e0830187612b37565b613189610100830186612b93565b613197610120830185612b37565b6131a5610140830184612b93565b9c9b505050505050505050505050565b600060e08201905081810360008301526131cf818a612af4565b905081810360208301526131e38189612af4565b905081810360408301526131f78188612af4565b9050818103606083015261320b8187612af4565b905061321a6080830186612b37565b61322760a0830185612b93565b81810360c08301526132398184612af4565b905098975050505050505050565b600080600080600060a0868803121561326357613262612915565b5b600086013567ffffffffffffffff8111156132815761328061291a565b5b61328d88828901612a37565b955050602086013567ffffffffffffffff8111156132ae576132ad61291a565b5b6132ba88828901612a37565b945050604086013567ffffffffffffffff8111156132db576132da61291a565b5b6132e788828901612a37565b935050606086013567ffffffffffffffff8111156133085761330761291a565b5b61331488828901612a37565b925050608086013567ffffffffffffffff8111156133355761333461291a565b5b61334188828901612a37565b9150509295509295909350565b60006020820190506133636000830184612b93565b92915050565b600080600080600080600080610100898b03121561338a57613389612915565b5b600089013567ffffffffffffffff8111156133a8576133a761291a565b5b6133b48b828c01612a37565b985050602089013567ffffffffffffffff8111156133d5576133d461291a565b5b6133e18b828c01612a37565b975050604089013567ffffffffffffffff8111156134025761340161291a565b5b61340e8b828c01612a37565b965050606089013567ffffffffffffffff81111561342f5761342e61291a565b5b61343b8b828c01612a37565b955050608061344c8b828c01612d7d565b94505060a089013567ffffffffffffffff81111561346d5761346c61291a565b5b6134798b828c01612a37565b93505060c089013567ffffffffffffffff81111561349a5761349961291a565b5b6134a68b828c01612a37565b92505060e06134b78b828c01612d7d565b9150509295985092959890939650565b6000602082840312156134dd576134dc612915565b5b60006134eb84828501612d7d565b91505092915050565b6000602082019050818103600083015261350e8184612af4565b905092915050565b7f4e487b7100000000000000000000000000000000000000000000000000000000600052602260045260246000fd5b6000600282049050600182168061355d57607f821691505b6020821081036135705761356f613516565b5b50919050565b7f4f6e6c79206f776e65722063616e20706572666f726d2074686973206163746960008201527f6f6e000000000000000000000000000000000000000000000000000000000000602082015250565b60006135d2602283612ab9565b91506135dd82613576565b604082019050919050565b60006020820190508181036000830152613601816135c5565b9050919050565b600060408201905061361d6000830185612b93565b61362a6020830184612b52565b9392505050565b600081905092915050565b600061364782612aae565b6136518185613631565b9350613661818560208601612aca565b80840191505092915050565b6000613679828461363c565b915081905092915050565b7f5374657020646f6573206e6f7420657869737400000000000000000000000000600082015250565b60006136ba601383612ab9565b91506136c582613684565b602082019050919050565b600060208201905081810360008301526136e9816136ad565b9050919050565b7f4e487b7100000000000000000000000000000000000000000000000000000000600052603260045260246000fd5b7f50726f6475637420646f6573206e6f7420657869737400000000000000000000600082015250565b6000613755601683612ab9565b91506137608261371f565b602082019050919050565b6000602082019050818103600083015261378481613748565b9050919050565b600060408201905081810360008301526137a58185612af4565b90506137b46020830184612b52565b9392505050565b7f4f776e65722063616e6e6f7420627579207468656972206f776e2070726f647560008201527f6374000000000000000000000000000000000000000000000000000000000000602082015250565b6000613817602283612ab9565b9150613822826137bb565b604082019050919050565b600060208201905081810360008301526138468161380a565b9050919050565b7f4e6f7420656e6f756768204554482073656e7400000000000000000000000000600082015250565b6000613883601383612ab9565b915061388e8261384d565b602082019050919050565b600060208201905081810360008301526138b281613876565b9050919050565b600060608201905081810360008301526138d38186612af4565b90506138e26020830185612b93565b6138ef6040830184612b37565b949350505050565b7f4e6f7420617574686f72697a6564000000000000000000000000000000000000600082015250565b600061392d600e83612ab9565b9150613938826138f7565b602082019050919050565b6000602082019050818103600083015261395c81613920565b9050919050565b7f2d00000000000000000000000000000000000000000000000000000000000000600082015250565b6000613999600183613631565b91506139a482613963565b600182019050919050565b60006139bb828561363c565b91506139c68261398c565b91506139d2828461363c565b91508190509392505050565b60008190508160005260206000209050919050565b60006020601f8301049050919050565b600082821b905092915050565b600060088302613a407fffffffffffffffffffffffffffffffffffffffffffffffffffffffffffffffff82613a03565b613a4a8683613a03565b95508019841693508086168417925050509392505050565b6000819050919050565b6000613a87613a82613a7d84612b2d565b613a62565b612b2d565b9050919050565b6000819050919050565b613aa183613a6c565b613ab5613aad82613a8e565b848454613a10565b825550505050565b600090565b613aca613abd565b613ad5818484613a98565b505050565b5b81811015613af957613aee600082613ac2565b600181019050613adb565b5050565b601f821115613b3e57613b0f816139de565b613b18846139f3565b81016020851015613b27578190505b613b3b613b33856139f3565b830182613ada565b50505b505050565b600082821c905092915050565b6000613b6160001984600802613b43565b1980831691505092915050565b6000613b7a8383613b50565b9150826002028217905092915050565b613b9382612aae565b67ffffffffffffffff811115613bac57613bab61293a565b5b613bb68254613545565b613bc1828285613afd565b600060209050601f831160018114613bf45760008415613be2578287015190505b613bec8582613b6e565b865550613c54565b601f198416613c02866139de565b60005b82811015613c2a57848901518255600182019150602085019450602081019050613c05565b86831015613c475784890151613c43601f891682613b50565b8355505b6001600288020188555050505b505050505050565b60006060820190508181036000830152613c768186612af4565b90508181036020830152613c8a8185612af4565b9050613c996040830184612b93565b949350505050565b7f4e6f7420617574686f72697a656420746f207570646174650000000000000000600082015250565b6000613cd7601883612ab9565b9150613ce282613ca1565b602082019050919050565b60006020820190508181036000830152613d0681613cca565b9050919050565b7f50726f6475637420616c72656164792065786973747300000000000000000000600082015250565b6000613d43601683612ab9565b9150613d4e82613d0d565b602082019050919050565b60006020820190508181036000830152613d7281613d36565b9050919050565b7f5072696365206d7573742062652067726561746572207468616e203000000000600082015250565b6000613daf601c83612ab9565b9150613dba82613d79565b602082019050919050565b60006020820190508181036000830152613dde81613da2565b9050919050565b7f4e487b7100000000000000000000000000000000000000000000000000000000600052601160045260246000fd5b6000613e1f82612b2d565b91507fffffffffffffffffffffffffffffffffffffffffffffffffffffffffffffffff8203613e5157613e50613de5565b5b600182019050919050565b7f4e487b7100000000000000000000000000000000000000000000000000000000600052601260045260246000fd5b6000613e9682612b2d565b9150613ea183612b2d565b925082613eb157613eb0613e5c565b5b828204905092915050565b6000613ec782612b2d565b9150613ed283612b2d565b9250828203905081811115613eea57613ee9613de5565b5b92915050565b6000613efb82612b2d565b9150613f0683612b2d565b9250828202613f1481612b2d565b91508282048414831517613f2b57613f2a613de5565b5b5092915050565b600060ff82169050919050565b6000613f4a82613f32565b9150613f5583613f32565b9250828201905060ff811115613f6e57613f6d613de5565b5b9291505056fea26469706673582212205c4f124f514ed9295eb1aa57a9542c30978c39ec02c0373a37e4f6ac812b329764736f6c63430008110033",
  "linkReferences": {},
  "deployedLinkReferences": {}
}